{
  "contractName": "InvoiceToken",
  "abi": [
    {
      "inputs": [
        {
          "internalType": "address",
          "name": "",
          "type": "address"
        }
      ],
      "name": "balances",
      "outputs": [
        {
          "internalType": "uint256",
          "name": "",
          "type": "uint256"
        }
      ],
      "stateMutability": "view",
      "type": "function"
    },
    {
      "inputs": [
        {
          "internalType": "address",
          "name": "fromAddress",
          "type": "address"
        },
        {
          "internalType": "uint256",
          "name": "amount",
          "type": "uint256"
        },
        {
          "internalType": "string",
          "name": "message",
          "type": "string"
        }
      ],
      "name": "addInvoice",
      "outputs": [],
      "stateMutability": "nonpayable",
      "type": "function"
    },
    {
      "inputs": [
        {
          "internalType": "uint256",
          "name": "id",
          "type": "uint256"
        }
      ],
      "name": "viewInvoice",
      "outputs": [
        {
          "internalType": "address",
          "name": "",
          "type": "address"
        },
        {
          "internalType": "address",
          "name": "",
          "type": "address"
        },
        {
          "internalType": "uint256",
          "name": "",
          "type": "uint256"
        },
        {
          "internalType": "string",
          "name": "",
          "type": "string"
        },
        {
          "internalType": "bool",
          "name": "",
          "type": "bool"
        }
      ],
      "stateMutability": "view",
      "type": "function"
    },
    {
      "inputs": [
        {
          "internalType": "address",
          "name": "buyerAddress",
          "type": "address"
        },
        {
          "internalType": "uint256",
          "name": "idx",
          "type": "uint256"
        }
      ],
      "name": "getIncomingInvoices",
      "outputs": [
        {
          "internalType": "uint256",
          "name": "",
          "type": "uint256"
        },
        {
          "internalType": "address",
          "name": "",
          "type": "address"
        },
        {
          "internalType": "uint256",
          "name": "",
          "type": "uint256"
        },
        {
          "internalType": "string",
          "name": "",
          "type": "string"
        },
        {
          "internalType": "bool",
          "name": "",
          "type": "bool"
        }
      ],
      "stateMutability": "view",
      "type": "function"
    },
    {
      "inputs": [
        {
          "internalType": "address",
          "name": "sellerAddress",
          "type": "address"
        },
        {
          "internalType": "uint256",
          "name": "idx",
          "type": "uint256"
        }
      ],
      "name": "getOutgoingInvoice",
      "outputs": [
        {
          "internalType": "uint256",
          "name": "",
          "type": "uint256"
        },
        {
          "internalType": "address",
          "name": "",
          "type": "address"
        },
        {
          "internalType": "uint256",
          "name": "",
          "type": "uint256"
        },
        {
          "internalType": "string",
          "name": "",
          "type": "string"
        },
        {
          "internalType": "bool",
          "name": "",
          "type": "bool"
        }
      ],
      "stateMutability": "view",
      "type": "function"
    },
    {
      "inputs": [
        {
          "internalType": "uint256",
          "name": "id",
          "type": "uint256"
        }
      ],
      "name": "pay",
      "outputs": [],
      "stateMutability": "payable",
      "type": "function"
    },
    {
      "inputs": [],
      "name": "withdraw",
      "outputs": [],
      "stateMutability": "nonpayable",
      "type": "function"
    },
    {
      "inputs": [
        {
          "internalType": "uint256",
          "name": "_date",
          "type": "uint256"
        }
      ],
      "name": "setInvoiceDate",
      "outputs": [],
      "stateMutability": "nonpayable",
      "type": "function"
    },
    {
      "inputs": [],
      "name": "getInvoiceDate",
      "outputs": [
        {
          "internalType": "uint256",
          "name": "_date",
          "type": "uint256"
        }
      ],
      "stateMutability": "view",
      "type": "function"
    }
  ],
  "bytecode": "0x608060405234801561001057600080fd5b50611496806100206000396000f3fe6080604052600436106100865760003560e01c80633ccfd60b116100595780633ccfd60b1461015d5780634fb04d2a14610174578063c290d6911461019d578063e1bf2126146101b9578063f9aa607f146101fa57610086565b806327e235e31461008b5780632fc00dd5146100c8578063319a01d81461010957806336e803ba14610134575b600080fd5b34801561009757600080fd5b506100b260048036038101906100ad9190610f02565b61023b565b6040516100bf9190610f48565b60405180910390f35b3480156100d457600080fd5b506100ef60048036038101906100ea9190610f8f565b610253565b604051610100959493929190611092565b60405180910390f35b34801561011557600080fd5b5061011e6104cf565b60405161012b9190610f48565b60405180910390f35b34801561014057600080fd5b5061015b600480360381019061015691906110ec565b6104d8565b005b34801561016957600080fd5b506101726104e2565b005b34801561018057600080fd5b5061019b6004803603810190610196919061124e565b610602565b005b6101b760048036038101906101b291906110ec565b610859565b005b3480156101c557600080fd5b506101e060048036038101906101db9190610f8f565b6109a8565b6040516101f1959493929190611092565b60405180910390f35b34801561020657600080fd5b50610221600480360381019061021c91906110ec565b610c24565b6040516102329594939291906112bd565b60405180910390f35b60046020528060005260406000206000915090505481565b600080600060606000806001600360008a73ffffffffffffffffffffffffffffffffffffffff1673ffffffffffffffffffffffffffffffffffffffff16815260200190815260200160002088815481106102b0576102af611317565b5b9060005260206000200154815481106102cc576102cb611317565b5b90600052602060002090600502016040518060a00160405290816000820160009054906101000a900473ffffffffffffffffffffffffffffffffffffffff1673ffffffffffffffffffffffffffffffffffffffff1673ffffffffffffffffffffffffffffffffffffffff1681526020016001820160009054906101000a900473ffffffffffffffffffffffffffffffffffffffff1673ffffffffffffffffffffffffffffffffffffffff1673ffffffffffffffffffffffffffffffffffffffff168152602001600282015481526020016003820180546103ab90611375565b80601f01602080910402602001604051908101604052809291908181526020018280546103d790611375565b80156104245780601f106103f957610100808354040283529160200191610424565b820191906000526020600020905b81548152906001019060200180831161040757829003601f168201915b505050505081526020016004820160009054906101000a900460ff1615151515815250509050600360008973ffffffffffffffffffffffffffffffffffffffff1673ffffffffffffffffffffffffffffffffffffffff168152602001908152602001600020878154811061049b5761049a611317565b5b9060005260206000200154816020015182604001518360600151846080015195509550955095509550509295509295909350565b60008054905090565b8060008190555050565b6000600460003373ffffffffffffffffffffffffffffffffffffffff1673ffffffffffffffffffffffffffffffffffffffff16815260200190815260200160002054141561052f57600080fd5b6000600460003373ffffffffffffffffffffffffffffffffffffffff1673ffffffffffffffffffffffffffffffffffffffff1681526020019081526020016000205490506000600460003373ffffffffffffffffffffffffffffffffffffffff1673ffffffffffffffffffffffffffffffffffffffff168152602001908152602001600020819055503373ffffffffffffffffffffffffffffffffffffffff166108fc829081150290604051600060405180830381858888f193505050501580156105fe573d6000803e3d6000fd5b5050565b60006040518060a001604052803373ffffffffffffffffffffffffffffffffffffffff1681526020018573ffffffffffffffffffffffffffffffffffffffff168152602001848152602001838152602001600015158152509050600181908060018154018082558091505060019003906000526020600020906005020160009091909190915060008201518160000160006101000a81548173ffffffffffffffffffffffffffffffffffffffff021916908373ffffffffffffffffffffffffffffffffffffffff16021790555060208201518160010160006101000a81548173ffffffffffffffffffffffffffffffffffffffff021916908373ffffffffffffffffffffffffffffffffffffffff16021790555060408201518160020155606082015181600301908051906020019061073c929190610ded565b5060808201518160040160006101000a81548160ff021916908315150217905550505060026000826000015173ffffffffffffffffffffffffffffffffffffffff1673ffffffffffffffffffffffffffffffffffffffff168152602001908152602001600020600180805490506107b391906113d6565b908060018154018082558091505060019003906000526020600020016000909190919091505560036000826020015173ffffffffffffffffffffffffffffffffffffffff1673ffffffffffffffffffffffffffffffffffffffff1681526020019081526020016000206001808054905061082d91906113d6565b908060018154018082558091505060019003906000526020600020016000909190919091505550505050565b60006001828154811061086f5761086e611317565b5b90600052602060002090600502019050600015158160040160009054906101000a900460ff161515146108a157600080fd5b3373ffffffffffffffffffffffffffffffffffffffff168160010160009054906101000a900473ffffffffffffffffffffffffffffffffffffffff1673ffffffffffffffffffffffffffffffffffffffff16146108fd57600080fd5b8060020154341461090d57600080fd5b60018160040160006101000a81548160ff02191690831515021790555034600460008360000160009054906101000a900473ffffffffffffffffffffffffffffffffffffffff1673ffffffffffffffffffffffffffffffffffffffff1673ffffffffffffffffffffffffffffffffffffffff168152602001908152602001600020600082825461099d919061140a565b925050819055505050565b600080600060606000806001600260008a73ffffffffffffffffffffffffffffffffffffffff1673ffffffffffffffffffffffffffffffffffffffff1681526020019081526020016000208881548110610a0557610a04611317565b5b906000526020600020015481548110610a2157610a20611317565b5b90600052602060002090600502016040518060a00160405290816000820160009054906101000a900473ffffffffffffffffffffffffffffffffffffffff1673ffffffffffffffffffffffffffffffffffffffff1673ffffffffffffffffffffffffffffffffffffffff1681526020016001820160009054906101000a900473ffffffffffffffffffffffffffffffffffffffff1673ffffffffffffffffffffffffffffffffffffffff1673ffffffffffffffffffffffffffffffffffffffff16815260200160028201548152602001600382018054610b0090611375565b80601f0160208091040260200160405190810160405280929190818152602001828054610b2c90611375565b8015610b795780601f10610b4e57610100808354040283529160200191610b79565b820191906000526020600020905b815481529060010190602001808311610b5c57829003601f168201915b505050505081526020016004820160009054906101000a900460ff1615151515815250509050600260008973ffffffffffffffffffffffffffffffffffffffff1673ffffffffffffffffffffffffffffffffffffffff1681526020019081526020016000208781548110610bf057610bef611317565b5b9060005260206000200154816000015182604001518360600151846080015195509550955095509550509295509295909350565b6000806000606060008060018781548110610c4257610c41611317565b5b90600052602060002090600502016040518060a00160405290816000820160009054906101000a900473ffffffffffffffffffffffffffffffffffffffff1673ffffffffffffffffffffffffffffffffffffffff1673ffffffffffffffffffffffffffffffffffffffff1681526020016001820160009054906101000a900473ffffffffffffffffffffffffffffffffffffffff1673ffffffffffffffffffffffffffffffffffffffff1673ffffffffffffffffffffffffffffffffffffffff16815260200160028201548152602001600382018054610d2190611375565b80601f0160208091040260200160405190810160405280929190818152602001828054610d4d90611375565b8015610d9a5780601f10610d6f57610100808354040283529160200191610d9a565b820191906000526020600020905b815481529060010190602001808311610d7d57829003601f168201915b505050505081526020016004820160009054906101000a900460ff161515151581525050905080600001518160200151826040015183606001518460800151955095509550955095505091939590929450565b828054610df990611375565b90600052602060002090601f016020900481019282610e1b5760008555610e62565b82601f10610e3457805160ff1916838001178555610e62565b82800160010185558215610e62579182015b82811115610e61578251825591602001919060010190610e46565b5b509050610e6f9190610e73565b5090565b5b80821115610e8c576000816000905550600101610e74565b5090565b6000604051905090565b600080fd5b600080fd5b600073ffffffffffffffffffffffffffffffffffffffff82169050919050565b6000610ecf82610ea4565b9050919050565b610edf81610ec4565b8114610eea57600080fd5b50565b600081359050610efc81610ed6565b92915050565b600060208284031215610f1857610f17610e9a565b5b6000610f2684828501610eed565b91505092915050565b6000819050919050565b610f4281610f2f565b82525050565b6000602082019050610f5d6000830184610f39565b92915050565b610f6c81610f2f565b8114610f7757600080fd5b50565b600081359050610f8981610f63565b92915050565b60008060408385031215610fa657610fa5610e9a565b5b6000610fb485828601610eed565b9250506020610fc585828601610f7a565b9150509250929050565b610fd881610ec4565b82525050565b600081519050919050565b600082825260208201905092915050565b60005b83811015611018578082015181840152602081019050610ffd565b83811115611027576000848401525b50505050565b6000601f19601f8301169050919050565b600061104982610fde565b6110538185610fe9565b9350611063818560208601610ffa565b61106c8161102d565b840191505092915050565b60008115159050919050565b61108c81611077565b82525050565b600060a0820190506110a76000830188610f39565b6110b46020830187610fcf565b6110c16040830186610f39565b81810360608301526110d3818561103e565b90506110e26080830184611083565b9695505050505050565b60006020828403121561110257611101610e9a565b5b600061111084828501610f7a565b91505092915050565b600080fd5b600080fd5b7f4e487b7100000000000000000000000000000000000000000000000000000000600052604160045260246000fd5b61115b8261102d565b810181811067ffffffffffffffff8211171561117a57611179611123565b5b80604052505050565b600061118d610e90565b90506111998282611152565b919050565b600067ffffffffffffffff8211156111b9576111b8611123565b5b6111c28261102d565b9050602081019050919050565b82818337600083830152505050565b60006111f16111ec8461119e565b611183565b90508281526020810184848401111561120d5761120c61111e565b5b6112188482856111cf565b509392505050565b600082601f83011261123557611234611119565b5b81356112458482602086016111de565b91505092915050565b60008060006060848603121561126757611266610e9a565b5b600061127586828701610eed565b935050602061128686828701610f7a565b925050604084013567ffffffffffffffff8111156112a7576112a6610e9f565b5b6112b386828701611220565b9150509250925092565b600060a0820190506112d26000830188610fcf565b6112df6020830187610fcf565b6112ec6040830186610f39565b81810360608301526112fe818561103e565b905061130d6080830184611083565b9695505050505050565b7f4e487b7100000000000000000000000000000000000000000000000000000000600052603260045260246000fd5b7f4e487b7100000000000000000000000000000000000000000000000000000000600052602260045260246000fd5b6000600282049050600182168061138d57607f821691505b602082108114156113a1576113a0611346565b5b50919050565b7f4e487b7100000000000000000000000000000000000000000000000000000000600052601160045260246000fd5b60006113e182610f2f565b91506113ec83610f2f565b9250828210156113ff576113fe6113a7565b5b828203905092915050565b600061141582610f2f565b915061142083610f2f565b9250827fffffffffffffffffffffffffffffffffffffffffffffffffffffffffffffffff03821115611455576114546113a7565b5b82820190509291505056fea264697066735822122014d482d6495b501fb3683193d5d13fcca3d9728be42a977e95bc357dd467bed464736f6c634300080b0033",
  "immutableReferences": {},
  "source": "// SPDX-License-Identifier: MIT\r\npragma solidity >=0.4.22 <0.9.0;\r\n\r\n\r\ncontract InvoiceToken{\r\n    struct Invoice {\r\n        address sellerPan;\r\n        address buyerPan;\r\n        uint amount;\r\n        string message;\r\n        bool paid;\r\n    }\r\n    uint256 date;\r\n\r\n    Invoice[] internal invoices;\r\n    \r\n    mapping (address => uint[]) internal sellers;\r\n    mapping (address => uint[]) internal buyers;\r\n    mapping (address => uint) public balances;\r\n    \r\n    function addInvoice(address fromAddress, uint amount, string memory message) public {\r\n        Invoice memory inv = Invoice({\r\n            buyerPan: fromAddress,\r\n            sellerPan: msg.sender, \r\n            amount: amount,\r\n            message: message,\r\n            paid: false\r\n\r\n        });\r\n        \r\n\r\n        invoices.push(inv);\r\n        sellers[inv.sellerPan].push(invoices.length - 1);\r\n        buyers[inv.buyerPan].push(invoices.length - 1);\r\n    }\r\n    \r\n    function viewInvoice(uint id) public view returns(address, address, uint, string memory, bool) {\r\n        Invoice memory inv = invoices[id];\r\n        return (inv.sellerPan, inv.buyerPan, inv.amount, inv.message, inv.paid);\r\n    }\r\n    \r\n    \r\n    function getIncomingInvoices(address buyerAddress, uint idx) public view returns (uint, address, uint, string memory, bool) {\r\n        Invoice memory inv = invoices[ buyers[buyerAddress][idx] ];\r\n        return (buyers[buyerAddress][idx], inv.buyerPan, inv.amount, inv.message, inv.paid);\r\n    }\r\n\r\n    function getOutgoingInvoice(address sellerAddress, uint idx) public view returns (uint, address, uint, string memory, bool) {\r\n        Invoice memory inv = invoices[ sellers[sellerAddress][idx] ];\r\n        return (sellers[sellerAddress][idx], inv.sellerPan, inv.amount, inv.message, inv.paid);\r\n    }\r\n    \r\n    \r\n    function pay(uint id) public payable {\r\n        Invoice storage inv = invoices[id];\r\n        \r\n        require(inv.paid == false);\r\n        require(inv.buyerPan == msg.sender);\r\n        require( msg.value == inv.amount);\r\n        \r\n        inv.paid = true;\r\n        balances[inv.sellerPan] += msg.value;\r\n    }\r\n    \r\n    function withdraw() public {\r\n        require(balances[msg.sender] != 0);\r\n        \r\n        uint toWithdraw = balances[msg.sender];\r\n        balances[msg.sender] = 0;\r\n        payable(msg.sender).transfer(toWithdraw);\r\n    }\r\n    function setInvoiceDate(uint256 _date) public {\r\n        date= _date;\r\n    }\r\n    function getInvoiceDate() public view returns(uint256 _date){\r\n        return date;\r\n    }\r\n}\r\n",
  "sourcePath": "C:\\Users\\ronde\\invoice_smart_contract\\contracts\\Invoice_smart_contract.sol",
  "compiler": {
    "name": "solc",
    "version": "0.8.11+commit.d7f03943.Emscripten.clang"
  },
  "schemaVersion": "3.4.4",
  "updatedAt": "2022-03-21T17:20:43.548Z",
  "devdoc": {
    "kind": "dev",
    "methods": {},
    "version": 1
  },
  "userdoc": {
    "kind": "user",
    "methods": {},
    "version": 1
  }
}